:020000040000FA
:06000000E0EFC6F0120063
:060008007EEFBAF01200C9
:0600180026EFBAF0120011
:06002A00DEEC18F00050AE
:100030000601925D22E0FE0E925D0DE01C0EE66E62
:10004000E66ACB0EE66E040EE66E9251B0EC15F049
:1000500012ECB8F046E900EB92F6FE0E005C0DE003
:100060001C0EE66EE66A0050B0EC15F0CB0EE66EA4
:10007000040EE66E12ECB8F046E9E4EF14F0060167
:100080009251935D01E11200FE0E935D0DE0250E8D
:10009000E66EE66A23EC17F02DEC18F0935178EC3D
:1000A00018F039EC13F048E992C693F6250EE66E87
:1000B000E66A06012DEC18F0925178EC18F023EC6A
:1000C00017F0AEEF17F05DEC14F081E94BE80A6A27
:1000D000190E0B6E3C0EE66EE66AE66AC10EE66E1F
:1000E000010EE66E60ECB8F045E9026A016A82EC46
:1000F00016F0015C000EF45401E378D0EDEC16F03C
:10010000BEDF0501CBEC13F0F62A000EF722F82231
:100110000800F550096ECBEC13F0020E2AEC17F034
:10012000036E0A00F550046ECBEC13F0040E2AECBB
:1001300017F0056E0A00F550066E095029E18AEBAA
:1001400007F08BEB08F0250E0324D66F000E042079
:10015000D76FD62B000ED7230550D625D46F065067
:10016000D721D56F87EC16F00A26D5510B220AEB62
:10017000D4F50BEBD5F5D66BD76BD880020ED455E2
:100180001F0ED555000ED655000ED75502E2EFD7FB
:10019000FFD70501CBEC13F00800F5CFCAF409EB4B
:1001A000E6F4250E04010724CB6F000E0820CC6F67
:1001B000CB0EE96E040EEA6EEE500324CD6FED50C7
:1001C0000420CE6FCD2B000ECE23CD0EE96E040E93
:1001D000EA6EEE500524CF6FED500620D06F0D0E65
:1001E000E16FE2977DEC0DF0012A81D74CE9E7CF72
:1001F000D9FF12005DEC14F089E941E8096A82EC4C
:1002000016F0095C000EF45401E37AD009EBE6FF26
:10021000EDEC17F00D0E0401E15D70E130DF0050F0
:100220000401CA5D6BE103500CE101EBB6F402EB93
:10023000B7F4E287040EE16F01EBE4F402EBE5F4BE
:100240005BD0000EA45D040EA55905E3A4518808F7
:10025000130EA55503E2A46B040EA56FA4C4B6F457
:10026000A5C4B7F4A42B000EA52301EBB4F402EB54
:10027000B5F49EEC17F00401E2890350040A22E071
:10028000070A11E0020A02E0030A36E1C9EC16F09F
:10029000020E035C02E0000E01D0010EC895E8B02A
:1002A000C885E16B29D0050106500424D66F07509C
:1002B000052090EC15F0C9EC16F031EC17F0020EA9
:1002C000E16F1AD05BEC17F0D2EC16F05BEC17F094
:1002D0000FEC18F090EC15F07EEC17F004EBE6FF55
:1002E00005EBE6FFA7EC18F00401050EE16F010E27
:1002F000E66E020EB0EC14F0095003D0092A7FD745
:10030000FE0E42E9E7CFD9FF1200C1EC17F004015D
:10031000E3A903D0E399010E01D0000EE4EF14F03D
:10032000C1EC17F0070E0401E15D02E0000E01D000
:10033000010EE4EF14F0C1EC17F060EC17F00401CB
:10034000E151080A1EE0010A1CE0050A1AE0020A4F
:1003500015E0050A0FE00D0A09E0010A07E0020AAC
:1003600014E0040A0EE1A1ECA9F00FD07CEC18F027
:10037000080E05D07CEC18F00C0E01D00D0EE16FCC
:1003800006D0E66A140EB0EC14F07DEC0DF0E4EF4C
:1003900014F0DEEC18F073DE7EEC17F0DCEC15F0F8
:1003A000E70EE66E040EE66E1BEC17F0B4C4F1F433
:1003B000B5C4F2F40501E70ED46F040EC9EC17F0D2
:1003C000E4EF14F0C1EC17F05ADE0401B251D11978
:1003D00002E1B351D21902E0C4EC17F0E4EF14F0DB
:1003E000DEEC18F041E8E0EC14F00401E151026E9B
:1003F000070E025C06E00B0E025C03E01FEC17F038
:1004000029D0D351D15DD451D25914E318EC18F04E
:10041000D607000ED75B0401D351D15D0501D86F1B
:100420000401D451D2590501D96F4EEC18F0C9EC32
:1004300017F010D0D151D35D0501D46F0401D25112
:10044000D4590501D56FD407000ED55BD4C5F3FF91
:10045000D5C5F4FF42E9E7CFD9FF12005DEC14F0F7
:1004600083E942E8EDEC16F001EBE6FFAAEC18F0A8
:10047000036EF450046E0350041002E1000E3ED0EF
:10048000010E031806E1045004E101EBE6FF9ADFD8
:1004900041E90401E351010B0BE154EC18F0035066
:1004A000D45D0450D55904E301EBE6FFAFEC18F03E
:1004B000010EE66EE66AE66ED9CFE6FFDACFE6FF1A
:1004C0007FEC15F0AEEC17F00401D12B000ED22317
:1004D000CD51D15DCE51D25902E38CEC16F0010E14
:1004E000031807E1045005E101EBE6FFC5EC16F047
:1004F00004D0E2BB02D0F1EC13F0010E43E9E7CFE8
:10050000D9FF12005DEC14F086E946E80A6A0B6A2E
:1005100004EBE6FFEDEC17F004EBE6FFAAEC18F0B5
:10052000086EF450096E0850091007E104EBE6FF6D
:10053000C5EC16F01FEC17F05BD088EB06F089EBEA
:1005400007F00850005C0950015804E280EB06F007
:1005500081EB07F00401E351010B0BE154EC18F0BF
:100560000850D45D0950D55904E304EBE6FFAFEC25
:1005700018F06FEC16F00624D46FED5007209DECB8
:1005800016F017E30401D151CD5D0A6ECE51D2555C
:100590000B6E0AEBE6FF0BEBE6FFE2EC18F00A50FD
:1005A00002260B5003220A50065E0B50075A8CECB1
:1005B00016F0E1EC15F0E2EC18F004010650D1273A
:1005C0000750D2230850005C0950015805E304EBA2
:1005D000E6FFC5EC16F004D0E2BB02D0F1EC13F05C
:1005E000050106500A24D46F07500B20C9EC17F000
:1005F000F1EF16F05DEC14F087E946E80B6A0C6A3F
:100600003DEC16F005EBE6FFAAEC18F0096EF4508D
:100610000A6E09500A1007E105EBE6FFC5EC16F07B
:100620001FEC17F05FD00401E351010B0BE154EC18
:1006300018F00950D45D0A50D55904E305EBE6FFE4
:10064000AFEC18F089EB07F08AEB08F00950005C7A
:100650000A50015804E280EB07F081EB08F06FECE0
:1006600016F00724D46FED5008209DEC16F019E326
:100670000401D151CD5D0B6ECE51D2550C6E0BEBFA
:10068000E6FF0CEBE6FFD8EC18F00BEBD4F50CEB27
:10069000D5F5E6EC15F00B50075E0C50085A8CECC3
:1006A00016F007EBE6FF08EBE6FFD8EC18F00401C4
:1006B0000750D1270850D2230950005C0A50015836
:1006C00005E305EBE6FFC5EC16F004D0E2BB02D073
:1006D000F1EC13F0050107500B24D46F08500C20E7
:1006E000C9EC17F0F1EF16F05DEC14F084E976EC4C
:1006F00014F069ECB9F042E9F3CFE6FFF4CFE6FF7E
:1007000076EC14F002EBE6FFFDDE45E90501005052
:10071000F324D46F0150F420C9EC17F0E4EF14F087
:100720005DEC14F085E976EC14F002EBE6FF77EC73
:10073000B9F043E9FCC3DAF5FDC3DBF5FEC3DCF534
:10074000FCC3E6FFFDC3E6FF76EC14F05FEC15F0AA
:1007500051DF46E9F3CFD7F5F4CFD8F50501D96BD2
:10076000D9CFE9FFDACFEAFFEE50F324D46FEE5091
:10077000F420D56FEE50D921D66FD4C5FCF3D5C582
:10078000FDF3E8CFFEF3E4EF14F082EC18F004017F
:1007900005EC14F0D405046E000ED559056E00EB7F
:1007A000E6FF1EDE64EF15F0DEEC18F000EBE6FF6E
:1007B000C2EC18F0B3EC18F00501F350F41006E0A9
:1007C000E0EC14F060EC17F0C4EC17F0E4EF14F078
:1007D000C1EC17F00401F5EC16F009E3D751D55D33
:1007E0000501D46F0401D851D65905011BD0D7514A
:1007F000CF5D0501D66F0401D851D0590501D76FDF
:10080000D62B000ED7230401CD51D55D0501D86F3D
:100810000401CE51D6590501D96FD651D825D46FD0
:10082000D751D921C9EC17F0E4EF14F05DEC14F0C6
:1008300084E942E802EBE6FFC2EC18F0F350046EE4
:10084000F450056E0450051002E1000E29D002EBB1
:10085000E6FFEDEC17F0005001100BE0010EE66E24
:10086000E66A76EC16F0E66E76EC14F039EC13F0EE
:1008700048E90401D72B000ED823D751CF5DD851BA
:10088000D05902E265EC17F0010E041804E105509E
:1008900002E1E38504D0E2BB02D0F1EC13F0010EDB
:1008A00043E9E7CFD9FF12005DEC14F086E944E894
:1008B000086A096A04EBE6FFC2EC18F0F350066E12
:1008C000F450076E0650071003E11FEC17F060D0DC
:1008D00004EBE6FFEDEC17F00050065C0150075802
:1008E00004E286EB00F087EB01F0D70EE96E040E10
:1008F000A7EC15F020E2D751CF5D086ED051D85546
:10090000096E082A000E0922025003100EE008EBBF
:10091000E6FF09EBE6FF76EC16F05AEC18F0AEECC9
:1009200017F008500226095003220850005E0950B3
:10093000015A65EC17F00250031009E076EC14F050
:1009400076EC16F05AEC18F039EC13F048E9040193
:100950000050D7270150D823085000260950012203
:1009600005010050065CD46F01500758D56FD45173
:10097000005CD551015803E30401E38505D004016F
:10098000E2BB02D0F1EC13F000EBF3FF01EBF4FF5C
:1009900045E9E7CFD9FF120082EC18F00401CD51F0
:1009A000CF5D046ED051CE55056E00EBE6FF10DF33
:1009B00064EF15F05DEC14F08BE970E8055006105B
:1009C00003E11FEC17F010D109EBE6FFEDEC17F097
:1009D00009EBE6FFC2EC18F00350F35C0D6E045017
:1009E000F4580E6E05500D5C06500E5801E2F4D01E
:1009F0000150021009E00D50015C0E50025804E253
:100A000081EB0DF082EB0EF00401D7510324116E3F
:100A1000D8510420126E1150CF5D1250D05905E20A
:100A20005EEC18F0115ED551125A91EB0BF092EB7F
:100A30000CF004011150CF5D0F6E1250D059106EA2
:100A40000F2A000E102283EB11F084EB12F085EBDD
:100A500013F086EB14F087EB15F088EB16F007EB3C
:100A6000E9FF08EBEAFF072A0822EF50186E1A6A1E
:100A7000005008E0610E185C05E318507A0802E3A4
:100A8000E00E1826200E196E19500F5C000E10583B
:100A900002E28FEB19F019500D5C000E0E5802E2C5
:100AA0008DEB19F01950E66EE66AE6C4E6FF0BEB33
:100AB000E6FF0CEBE6FF010EE66ED9501B0F8CEC47
:100AC00015F0AEEC17F019500B26000E0C22195041
:100AD0000F5E000E105A0F50101007E10401CD51A7
:100AE0000B6ECE510C6E0F681068005047E0176A0D
:100AF0001950175C68E20501D9501B0FD56FDACF8A
:100B0000D6F51750A7EC16F013E3D9501B0FD76F8B
:100B1000DACFD8F5175003EC17F00AE3E00ED66FE2
:100B2000D9501B0FD46F175086EC15F0D651EF2615
:100B3000F1EC17F010E10DEC15F02BE017EC15F0CF
:100B4000010E1A6E610E185C17E318507A0814E350
:100B5000E00E182611D093EB05F094EB06F01A5036
:100B60000BE086EC18F0610E185C05E318507A086B
:100B700002E3E00E18261A6A172ABAD7176A195024
:100B8000175C21E20501F1EC17F012E10DEC15F014
:100B90000AE11350115CD66F14501258D76F1750DA
:100BA00000EC16F021D017EC15F0010E1A6E09D0EA
:100BB00093EB05F094EB06F01A5003E086EC18F086
:100BC0001A6A172ADCD719500D5E000E0E5A05500E
:100BD0000D5C06500E5803E2F368F46805D0195016
:100BE0001126000E12224ED771E9E7CFD9FF12006D
:100BF0005DEC14F08CE971E80550061003E11FEC80
:100C000017F00CD10AEBE6FFEDEC17F00AEBE6FF6C
:100C1000C2EC18F00350F35C0E6E0450F4580F6EE3
:100C200005500E5C06500F5801E2F0D00150021042
:100C300009E00E50015C0F50025804E281EB0EF007
:100C400082EB0FF00401D7510324126ED851042017
:100C5000136E1250CF5D1350D05905E25EEC18F0C0
:100C6000125ED551135A92EB0CF093EB0DF0040188
:100C70001250CF5D106E1350D059116E102A000E15
:100C8000112283EB12F084EB13F085EB14F086EB6A
:100C900015F087EB16F088EB17F089EB18F00FECE6
:100CA00014F01C6A005008E0610E1A5C05E31A504B
:100CB0007A0802E3E00E1A26200E1B6E1B50105C11
:100CC000000E115802E290EB1BF01B500E5C000E60
:100CD0000F5802E28EEB1BF01B50E66EE66AE6C48C
:100CE000E6FF0CEBE6FF0DEBE6FF010EE66ED950DA
:100CF0001D0F8CEC15F0AEEC17F01B500C26000EFF
:100D00000D221B50105E000E115A1050111007E1F9
:100D10000401CD510C6ECE510D6E1068116800505B
:100D200047E0196A1B50195C68E20501D9501D0F94
:100D3000D56FDACFD6F51950A7EC16F013E3D950DA
:100D40001D0FD76FDACFD8F5195003EC17F00AE36F
:100D5000E00ED66FD9501D0FD46F195086EC15F0E8
:100D6000D651EF26FBEC17F010E10DEC15F02BE05F
:100D70000FEC14F0010E1C6E610E1A5C17E31A5092
:100D80007A0814E3E00E1A2611D094EB05F095EBE7
:100D900006F01C500BE034EC18F0610E1A5C05E311
:100DA0001A507A0802E3E00E1A261C6A192ABAD7EA
:100DB000196A1B50195C21E20501FBEC17F012E1E6
:100DC0000DEC15F00AE11450125CD66F1550135853
:100DD000D76F195000EC16F021D00FEC14F0010E73
:100DE0001C6E09D094EB05F095EB06F01C5003E067
:100DF00034EC18F01C6A192ADCD71B500E5E000E6A
:100E00000F5A05500E5C06500F5803E2F368F46861
:100E100005D01B501226000E13224ED772E9E7CFE1
:100E2000D9FF12005DEC14F088E976EC14F00BECBD
:100E300018F0010EFFEC16F0050F8CEC15F006EB28
:100E4000E6FFB8DD4AE9E4EF14F05DEC14F081E967
:100E50004AE8016A82EC16F0015C000EF45401E3EA
:100E6000E7D1EDEC16F0046A026A036A0401E3516B
:100E7000020B03E1E351040B0CE0A1EC9DF000092F
:100E800008E0100E046E0401E351040B01E0010EB2
:100E9000026E0401E2AB14D0D5EC14F00501D6517A
:100EA0000401DD5D0501D46FD7510401DE59050150
:100EB000D56FE83402E2FAEC16F002E3100E046E8D
:100EC0000401E2AD0AD0D5EC14F00DEC16F002E20C
:100ED000FAEC16F002E3100E046E0B0E0401E15D55
:100EE0000DE1D5EC14F00DEC16F002E2FAEC16F080
:100EF00005E3110E046E04010C0EE16F040E0401F3
:100F0000E15D50E1056A066A030E055C000E0658B5
:100F100049E2E6EC18F046E088EC17F02AEC18F00D
:100F20005AEC15F00401E4510501D41937E104012C
:100F3000E5510501D51932E13FEC00F07EEC17F0E8
:100F400088EC17F0DBEC16F0A7EC18F088EC17F043
:100F50000A0E72EC14F0EECFB4F4EDCFB5F488ECD9
:100F600017F00C0E72EC14F0EECFAEF4EECFAFF43F
:100F7000EECFB0F4EFCFB1F40401AE2BAF23B0232A
:100F8000B123C2EC14F0120E046E060EE16F140EC3
:100F9000E66EE66A050120EC14F004D0052A000E86
:100FA0000622B2D704500AE0025002E0000E01D03F
:100FB000010EE66E04EBE6FFF0D942E90401E2B966
:100FC0002DD0070EE15D01E031D1B5EC14F001E068
:100FD0002DD10401E251070B060816E1E251080B7E
:100FE00001E0010E046E01EBE6FF9BEC01F041E92C
:100FF00001EBE6FF9BEC01F041E9045001E016D162
:1010000004010E0EE16F12D13FEC00F0020EE66E0D
:10101000100EB0EC14F085EC14F008D1B5EC14F01F
:1010200001E004D13FEC00F00401E1510C0A01E1C0
:10103000C5D0060A01E1BDD0030A01E1C7D0010A0B
:1010400001E1B2D00F0A01E1A7D00C0A01E1A4D05E
:101050000D0A01E198D0030A01E193D0060A53E09A
:10106000010A43E0030A21E0010A01E0B3D09CEC4D
:10107000A9F0000901E1AED00401010EE16FC8A59D
:101080000BD0E66EBCC4E6FFBDC4E6FFBEC4E6FFFF
:10109000CCECA9F044E99ED0E66EBCC4E6FFBDC42A
:1010A000E6FFAEECA9F043E995D061EC18F0EDEC69
:1010B000A9F042E9000901E18DD0A1ECA9F00009F5
:1010C00010E007EBBCF408EBBDF409EBBEF40AEB4F
:1010D000BFF40401020EE16FC2EC14F031EC17F022
:1010E00079D085EC14F0E16B75D041EC16F0FCC3BF
:1010F000DDF4FDC3DEF4DCEC15F04DECBDF042E9AF
:101100000401030E3CD0C00EE66E040EE66EDCEC6D
:1011100015F0A8ECBDF044E900092CE1E8ECC5F0BD
:10112000B2EC17F0DDC4DCF5DEC4DDF50501DE6BE5
:10113000DF6BDC51D85DD46FDD51D959D56FDE51ED
:10114000DA59D66FDF51DB59D76FA60EE96E040E60
:10115000EA6ED451EE5CD551EE58D651EE58D751C7
:10116000EE5838E2060E0401C95D02E238EC17F0D1
:10117000020E05D0020E046E026A0401050EE16F34
:1011800029D0020E1FD0020EC95D02E2120E1AD043
:10119000E2B71CD0020E06D0050EC95D0DE3080EA5
:1011A000E16F110E046E16D0050EC95D0FE2110E2F
:1011B00009D0050EC95D0AE2100E04D0050EC95D06
:1011C00005E2110E046E010E026E04D0140E046EC0
:1011D000010E036E045026E002501EE0040138ECBC
:1011E00017F04BEC15F0D56FD66BD76BD5AF02D09F
:1011F000D669D769ACEC14F004012CEC16F008E2C7
:1012000065EC18F0D5AF02D0D669D769ACEC14F014
:101210006AEC17F0E66A02D0010EE66E04EBE6FF18
:10122000BCD842E9035002E07DEC0DF0012A12D651
:10123000056A066A030E055C000E065822E2E6EC1B
:1012400018F01FE0D5EC14F088EC17F0120E72ECD9
:1012500014F0EE500501D65DD46FEE50D759D56F1E
:10126000D451DC08010ED55508E2140EE66EE66A8C
:1012700020EC14F00506000E065A052A000E062280
:10128000D9D74BE9E7CFD9FF12005DEC14F087E91D
:1012900065E85BEC17F0EE501B6EEE501C6EEE50E6
:1012A0001D6EEF501E6E6DEC14F0EE501F6EEE5082
:1012B000206EEE50216EEF50226E236A060E246ED1
:1012C00080EB25F081EB26F025EBE6FF26EBE6FF31
:1012D0005FEC91F042E9F350256EF450266E0C0E4F
:1012E000FFEC16F01B0F8CEC18F0276EF41C286E28
:1012F00076EC14F072EC9FF042E9F350296EF45052
:101300002A6E2950271842E12A5028183FE1000E82
:10131000E66EE66AB6ECC3F042E9140EFFEC16F096
:10132000070F8CEC15F0A1ECA0F044E961EC18F08B
:10133000A3DB42E9D950130FCEEC17F0C6EC15F041
:101340000501D46FD56B140ED45F000ED55BD4515C
:101350002B6E2B50005CD46F000E0158D56F140E0D
:10136000D45D006E000ED559016E04EBE6FF05EB6F
:10137000E6FF61EC18F03FDA44E9000907E076EC9B
:1013800014F061EC18F0BCEC0DF044E9C5EC9DF0F4
:10139000010E66E9E7CFD9FF12005DEC14F083E996
:1013A0006AE83FEC00F001A003D00401E38701905C
:1013B0000401E29BE29DE29FE393E395E391A1ECBC
:1013C0009DF00009FCE0060E011403E0296A2A6A78
:1013D000CBD00401B251D1190DE1B351D2190AE1B8
:1013E000296A2A6AE3A7C0D0B851B91101E1BCD07B
:1013F0000180BAD0D151B25DD251B35935E2B25168
:10140000D15D296ED251B3556AEC18F003E34BEC71
:1014100015F002D0E8EC14F0B1EC16F004E2ABEBFE
:1014200029F0ACEB2AF029501808020E2A5402E2E7
:101430003FEC17F00401E3A70DD02B50291802E16F
:101440002C502A1807E0180E291802E1020E2A185B
:1014500001E001806FEC17F0B9EC15F004012950A0
:10146000B2272A50B32380D0B251CD5D276ECE5122
:10147000B355286E6FEC16F02724D46FED5028205A
:10148000D56F0401CB510501D45D296ED5510401FE
:10149000CC556AEC18F003E34BEC15F002D0E8EC05
:1014A00014F0B1EC16F004E2ABEB29F0ACEB2AF04F
:1014B00029501808020E2A5402E23FEC17F00401EA
:1014C000E3A70DD02B50291802E12C502A1807E071
:1014D000180E291802E1020E2A1801E00180275097
:1014E000295C28502A5804E2A9EB27F0AAEB28F03F
:1014F00074EC17F0B9EC15F02750295C276E2850D2
:101500002A58286E2750281021E074EC17F0E6C402
:10151000E6FFCBC4E6FFCCC4E6FFE66A0401B251A5
:10152000CD5D0501D46F0401B351CE590501D56FCE
:10153000D66BD76B450ED427130ED523000ED623BA
:10154000D723B8EC18F039EC13F048E9040129501E
:10155000B2272A50B323CD51B25DCE51B35904E323
:1015600005EC14F00BEC17F029502A1003E1030EE0
:10157000011413E029502A1001E0018600A008D0D0
:101580000401C96BF20EA66F9E0EA76FA86BA96B24
:1015900090EC14F00401E2892AD000A21BD0E20EE4
:1015A000E96E040EEA6EEF50070BE82AF36EF35073
:1015B000070BF36EF46EF80EEF14F310EF6EF450A9
:1015C0000401AA07000EAB5BAC5BAD5B010E296E9C
:1015D0002A6A0DD00401E2A90AD000B006D0C907DA
:1015E000D890A933A833A733A63390EC14F00401A4
:1015F000B651056EB751066EB451076EB551086EFF
:10160000AA51096EAB510A6EAC510B6EAD510C6E06
:10161000AE510D6EAF510E6EB0510F6EB151106ED6
:10162000129C129E119011921194119681EB12F05E
:10163000176A186A29EBD4F52AEBD5F5050145ECB4
:1016400016F001A210D001B804D00D6A0E6A0F6A1C
:10165000106AC8A303D050EC16F005D0AA2BAB2318
:10166000AC23AD23C88301A00AD0C8A103D050EC9D
:1016700016F005D0AA2BAB23AC23AD23C881F5EC23
:1016800016F008E37BEC14F01AEC16F0136ED5514B
:10169000D75505D059EC16F0136E000ED559146EBF
:1016A000E5EC9DF0400EF35C036E000EF458046E02
:1016B000043402E3036A046A1350035C14500458B0
:1016C00004E283EB13F084EB14F0D950050F8CEC9B
:1016D00015F0D2D942E9140E2926000E2A221188CB
:1016E000119A118C119E01A222D0040E2926000EFF
:1016F0002A22020E196E040E1A6E020E1B6E140EB2
:101700001C6E0501010ED46FD950110FCEEC17F0ED
:1017100092EC18F0D4250F0BF36EF46EF346F346FB
:10172000F346F3460F0EEF14F310EF6EF45005017D
:1017300000511D6E01511E6E02511F6E0351206E2D
:101740000401BC51216EBD51226EBE51236EBF51AA
:10175000246E256A060E266EA9EB27F0AAEB28F068
:1017600074EC17F05FEC91F042E9F350276EF450FF
:10177000286E0C0EFFEC16F01D0F8CEC18F0156E99
:10178000F41C166E1D0E46EC17F06FEC17F0060EEB
:10179000E66EDCEC15F056ECC3F045E9140EFFECF8
:1017A00016F0050FE2EC17F001A206D0040EFFECD4
:1017B00016F0190FE2EC17F0310EE66E130EE66E1E
:1017C0003AEC9FF042E96FEC17F072EC9FF042E9BF
:1017D000F350036EF450046E410E46EC17F0020E07
:1017E000FFEC16F0030FE2EC17F002EC9FF06BE950
:1017F000E7CFD9FF12005DEC14F085E946E88EECE6
:1018000017F0EE50ED1001E19BD0FE0E066EA9EC34
:1018100017F0D2EC16F0A9EC17F00FEC18F0D76F18
:101820006DEC14F0D651EE24D46FD751EE20D56F65
:101830008EEC17F0EE50D419076EED50D519086EE6
:10184000056A82EC16F0055C000EF4544BE23DECA8
:1018500016F00D0E0401E15D43E0040EE15D0FE1C1
:10186000D5EC18F00501D4510401E41939E1050162
:10187000D5510401E51934E185EB06F031D007506C
:10188000E4192EE10850E5192BE13FEC00F0D5EC0E
:1018900018F00401B6510501D41922E10401B75131
:1018A0000501D5191DE16DEC14F091EC16F0040161
:1018B000B4510501D61914E10401B5510501D71938
:1018C0000FE1A9EC17F0EE500401BC1909E1EE504C
:1018D000BD1906E1EE50BE1903E1EE50BF1926E036
:1018E000052AAFD7FE0E065C23E006EBE6FFEDEC23
:1018F00017F03FEC00F0FE0E065C1AE007EBE4F494
:1019000008EBE5F47EEC17F076EC14F0A7EC18F099
:101910006DEC14F0EECFB4F4EDCFB5F48EEC17F01F
:10192000EECFB6F4EDCFB7F479EC17F0010EA2D0FC
:1019300099EC18F0020B04E00101F951FA1102E0F0
:10194000000E98D0096A0A6A030E095C000E0A5854
:1019500039E2F1EC18F0EE50ED1034E0F1EC18F053
:101960005AEC15F08EEC17F091EC16F00501D651FB
:10197000D41924E1D751D51921E182EC17F00A0ED0
:1019800072EC14F05AEC15F06DEC14F091EC16F0CA
:10199000D651D41913E1D751D51910E1A9EC17F09C
:1019A000C6EC18F0EE50D41908E1EE50D51905E157
:1019B000EE50D61902E1EE50D7194BE0092A000E7D
:1019C0000A22C2D7056A82EC16F0055C000EF454B8
:1019D00050E23DEC16F00401E2A749D03FEC00F0E4
:1019E000D5EC18F00501D4510401B61940E1050108
:1019F000D5510401B7193BE17EEC17F076EC14F0F9
:101A000082EC17F0DBEC16F01BEC17F06DEC14F029
:101A10005AEC15F082EC17F00A0E72EC14F0D4C5F3
:101A2000EEFFD5C5EDFF6DEC14F0040E72EC14F072
:101A3000C6EC18F00C0E72EC14F0D4C5EEFFA0EC5E
:101A400018F0D5EC18F0F1EC18F0D4C5EEFFD5C5C0
:101A5000EDFFE8ECC5F0FDC3D5F582EC17F0120EF2
:101A600072EC14F0FCC3EEFFD5C5EDFF03D0052AE0
:101A7000AAD7000EF1EF16F05DEC14F083E9A9ECA3
:101A800017F062EC14F054EC15F0020EF4EC18F0C0
:101A9000020E72EC14F054EC15F0040E72EC14F01B
:101AA000F5EC14F0040E72EC14F027EC16F0080EAE
:101AB00072EC14F0F5EC14F0080E72EC14F027EC54
:101AC00016F00E0EF4EC18F00E0E72EC14F054EC4E
:101AD00015F02AEC18F062EC14F02AEC18F054EC33
:101AE00015F0120EF4EC18F0120E72EC14F0F3CFA5
:101AF000EEFFD5C5EDFFE4EF14F03FEC00F0B6C407
:101B0000E4F4B7C4E5F48CEC16F0CBC4D3F4CCC445
:101B1000D4F4CDC4D5F4CEC4D6F465EC17F00401EA
:101B2000E251080B02E0040E01D00D0EE16FE291CC
:101B3000E293E295E299E29BE29DE29FE391E393D7
:101B4000E395E397E389C891C893C897C89979EC5E
:101B500017F075ECB4F0F3CFAAF4F4CFABF475EC56
:101B6000B4F0F3CFACF4F4CFADF40401C669C769A7
:101B7000010EB86FB96B12005DEC14F085E95AE8FC
:101B800099EC18F0136E6DEC14F0080E72EC14F072
:101B9000EE50146EEE50156EEE50166EEF50176E3E
:101BA0006DEC14F0040E72EC14F0EE50186EEE5062
:101BB000196EEE501A6EEF501B6E0401E291E29323
:101BC000E295E2B902D085EC14F0E151050A19E082
:101BD000010A07E080EB1CF081EB1DF013A044D05C
:101BE00040D013B464EF12F013A805D0CAEC15F07E
:101BF000E66A040E68D213A264EF12F0F2EC15F05C
:101C000026D013B46BEF12F013A810D01450AA19F9
:101C100001E0F5D01550AB1901E0F1D01650AC1928
:101C200001E0EDD01750AD1901E0E9D013A26BEF40
:101C300012F0F2EC15F022EC18F013A808D0C4EC66
:101C400017F00401070EE16FE2996BEF12F0010E3D
:101C5000E66E120EB0EC14F00401060EE16F6BEFAD
:101C600012F01C2A000E1D2213A203D01C2A000E03
:101C70001D22F5EC16F008E37BEC14F01AEC16F0DC
:101C8000116ED551D75505D059EC16F0116E000ED6
:101C9000D559126ED950180FCEEC17F00401AE5181
:101CA000EE5C0501D46F0401AF51EE580501D56F0C
:101CB0000401B051EE580501D66F0401B151EE5840
:101CC0000501D76FD4510B6ED5510C6ED6510D6EE8
:101CD000D7510E6E8BEB0FF08CEB10F01E6A1C5080
:101CE0001D1054E01150121061E00E3407E274EC44
:101CF00015F002E63FEC15F043E933E31CEBD4F5B5
:101D00001DEBD5F5D66BD76BD9500B0FCEEC17F07A
:101D1000E4EC16F0D735000ED71909E6D880000E8E
:101D2000D455000ED555000ED655000ED7551BE2E2
:101D30001C50115CD86F1D501258D96FDA6BDB6BD9
:101D4000D9AF02D0DA69DB690E34DB510E1808E630
:101D50000B50D85D0C50D9590D50DA590E50DB5943
:101D600002E3010E1E6E74EC15F002E63FEC15F076
:101D700043E91CE20F501C24D46F10501D20D56F76
:101D8000E83414E2FAEC16F011E20ED00B500C100D
:101D90000D100E1009E00E3409E274EC15F002E6A5
:101DA0003FEC15F043E902E2010E1E6E1E5003E106
:101DB00013B491D38CD3060E131401E085D313A86A
:101DC0008AD30401E1510C0A01E194D10B0A31E0FC
:101DD0000F0A2FE0010A2DE0020A2BE0010A29E098
:101DE0000C0A01E098D11450AA1908E11550AB195A
:101DF00005E11650AC1902E11750AD1918E0AA51CF
:101E0000186EAB51196EAC511A6EAD511B6ECAEC07
:101E100015F0010EE66E040EB0EC14F018EBAAF407
:101E200019EBABF41AEBACF41BEBADF454D3070E87
:101E3000E16FB251D15D096ED251B3550A6E0A34C9
:101E400006E305EC14F0D4510926D5510A2209EB1A
:101E5000D4F50AEBD5F50501D66BD76BBDEC18F0C0
:101E6000E4EC16F0D3EC15F005EBD8F506EBD9F55C
:101E700007EBDAF508EBDBF5D950140FCEEC17F0D1
:101E8000EE5092EC17F0800ED71502E0E66A21D3EF
:101E90000401D351B25D0501D86F0401D451B35987
:101EA0000501D96FDA6BDB6BD9AF02D0DA69DB6978
:101EB000BDEC18F0D851EE5CD46FD951EE58D56F07
:101EC000DA51EE58D66FDB51EE58D76FD3EC15F0E0
:101ED00004012CEC16F008E265EC18F0D950050F5F
:101EE000CEEC17F03CEC18F014EBD8F515EBD9F567
:101EF00016EBDAF517EBDBF5D950050FCEEC17F042
:101F0000EE50050192EC17F0D3EC15F0083465E2C1
:101F100005500008000E0654000E0754000E085429
:101F20005CE2040165EC18F00550D45D0650D5590B
:101F30000750D6590850D75950E30401C897C8999B
:101F4000E391D351096ED4510A6E0550D327065040
:101F5000D4230950B25D0A50B3590AE32CEC16F0B1
:101F600024E2B251D35D0501D46F0401B35116D000
:101F700005EC14F0D4510401B225096EB3510501EA
:101F8000D5210A6E0401D351095CD4510A580DE2DF
:101F90000950D35D0501D46F0A500401D4590501DD
:101FA000D56F45EC16F06AEC17F0CD51D35DCE51EC
:101FB000D45909E305EC14F0D4510401D35F0501B1
:101FC000D5510401D45BCD51B25DCE51B3592DE34F
:101FD00005EC14F00BEC17F028D00401B251D31922
:101FE00002E1B351D41921E0C8A71ED0C8A91BD063
:101FF0004BEC15F0D56FD66BD76BD5AF02D0D66949
:10200000D769ACEC14F004012CEC16F008E265EC96
:1020100018F0D5AF02D0D669D769ACEC14F06AECF1
:1020200017F00401E385C889C887D151D31916E197
:10203000D251D41913E1E3B702D0E2990FD0AA51DB
:1020400014180CE1AB51151809E1AC51161806E152
:10205000AD51171803E1E299E397C891B851B9114E
:1020600009E16DEC14F00E0E72EC14F0EE50ED1070
:1020700001E0E38322EC18F0080EE15D1BE1AA51B8
:10208000141849E1AB51151846E1AC51161843E15B
:10209000AD51171840E19EEC17F0BA0E0401D92794
:1020A0001A0EDA23030EDB23000EDC23E289090E6D
:1020B000E16F31D0090EE15D09E113B02CD0CAEC1B
:1020C00015F0E66A140EB0EC14F0FED10A0EE15DD4
:1020D00022E1AA51141801E0FED1AB51151801E01C
:1020E000FAD1AC51161801E0F6D1AD51171801E044
:1020F000F2D1EAD1AA51141801E0EDD1AB51151873
:1021000001E0E9D1AC51161801E0E5D1AD51171845
:1021100001E0E1D1D9D113BADED10B0EE15D01E1CD
:10212000DAD10A0EE15D01E1D6D10C0EE15D01E1EB
:10213000D2D10050011001E150D1103404E20F500F
:102140000008000E105401E27FD071EC18F0050178
:10215000D8800F54D46F000E1054D2EC17F0B6ECA8
:10216000C3F042E90F500026105001220050115CCC
:102170000150125804E291EB00F092EB01F000EBF9
:10218000D4F501EBD5F531EC16F0D50EE96E040E61
:10219000A7EC15F020E2D551CF5D096ED051D65590
:1021A0000A6E092A000E0A2209EBE6FF0AEBE6FF97
:1021B000EBEC18F021EC15F0CDEC18F0D56F040124
:1021C000CD510501D4250401D56FCE510501D5218E
:1021D0000401D66F0AD08ADBEBEC18F0AEEC17F0F6
:1021E00004010050D5270150D623C61D01E1C71DAB
:1021F00001E1F3D00050C65F0150C75BC651BA255C
:10220000096EBB51C7210A6E0A341BE2C73504E2CE
:10221000C6510008000EC75501E2DFD009EBD4F526
:102220000AEBD5F531EC16F00950D5270A50D62324
:10223000D551CF5DD651D05904E25EEC18F04DEC8B
:1022400017F0C669C769C9D0103401E3C6D00F5072
:102250000008000E105401E3C0D0050100500F2407
:10226000D46F01501020D56FD451115CD551125844
:1022700006E20F50115C006E10501258016E71ECA6
:1022800018F0E66EE66AB6ECC3F042E9D50EE96EE8
:10229000040EEA6E050154EC17F00050D625D46FF9
:1022A0000150D72145EC18F038E2D551CF5D05013A
:1022B000D46F0401D651D0590501D56FD42B000E2F
:1022C000D5230F50D45D096E1050D5590A6E0A34CB
:1022D0000FE209EBE6FF0AEBE6FF97EC15F0EE5094
:1022E0000F24D46FED501020D2EC17F0AADB20D0D1
:1022F000FDDA97EC15F054EC17F00401CD51CF5DE9
:102300000501D86F0401CE51D0590501D96FD82BE2
:10231000000ED9234EEC18F009D0E8DA97EC15F04E
:102320000501EE500F24D46FED501020D2EC17F0C1
:10233000AEEC17F00401C61D0BE1C71D09E10FEB60
:10234000C6F410EBC7F400EBBAF401EBBBF445D0D4
:10235000C6510F5CC75110581EE27BDB07E364ECEB
:1023600016F00401C7510501D95905E200EBBAF492
:1023700001EBBBF40BD00401E0DB0F50D45D040192
:10238000BA6F10500501D5590401BB6F0FEBC6F4AD
:1023900010EBC7F422D05DDB20E20401CEDB0F504E
:1023A000D45D1050D55919E364EC16F0D66F0401D2
:1023B000C7510501D959D76F0401BA510501D65D3E
:1023C000D46F0401BB510501D759D56FD451040115
:1023D000BA270501D5510401BB231C501D1018E07C
:1023E000070E0401E15D02E060EC17F0E2AF05D0FA
:1023F000C4EC17F03FEC00F00BD0E28FE2BD08D048
:10240000E28DE8ECC5F0F8EC18F00F0EBBEC16F01E
:1024100013A061D0AEC4D4F5AFC4D5F5B0C4D6F521
:10242000B1C4D7F50501D42B000ED523D623D7236D
:102430001CEBD8F51DEBD9F5DA6BDB6BD950180F17
:10244000CEEC17F0EE50D827EE50D923EE50DA2319
:10245000EE50DB23D451D8193EE1D551D9193BE1D7
:10246000D651DA1938E1D751DB1935E10401AE2B29
:10247000000EAF23B023B123E151090A22E0010A83
:1024800011E00F0A08E0010A22E10C0EE16F010ED3
:10249000E66E110E1FD00B0EE16FF3DB1F0EBBECCF
:1024A00016F015D0AA51141809E1AB51151806E120
:1024B000AC51161803E1AD51171803E00A0EE16F95
:1024C00006D0E66A100E4CDA7DEC0DF004D0010E59
:1024D000E66E100E45DA5BE9E7CFD9FF1200EDD9C1
:1024E00087E946E8CADB0350041003E1010E036EDE
:1024F000046A0401CB51CF5D0501D46F0401CC51B6
:10250000D0590501D56FD405076E000ED559086E58
:1025100013EC17F0075CD55108585EE33FEC00F070
:10252000030E001402E10080008281EB0BF082EBCD
:102530000CF0050113EC17F0075ED551085A00A204
:102540000FD000A009D0D8900830D56F0730D46FD5
:10255000D4510B26D55103D007500B2608500C221E
:102560000401CB510B24076ECC510C20086E072AB6
:10257000000E0822D551096ED6510A6EC61D01E122
:10258000C71D10E0DADAD4510926D5510A22040118
:102590000950CF5D0A50D05905E25EEC18F0095E93
:1025A000D5510A5A04010950D75D0A50D85908E29A
:1025B0000750D75D0850D85919E200B40DD00ED09D
:1025C000D751095CD8510A5809E20750CD5D08502F
:1025D000CE590CE200A402D0000E4AD007EBD7F48B
:1025E00008EBD8F407EBD5F408EBD6F4D751095C27
:1025F000D8510A582CE2040E001429E0CD0EE96EE1
:10260000040EEA6E0501EE50095CD46FED500A58D5
:10261000D2EC17F0E6C4E6FFCDC4E6FFCEC4E6FF79
:10262000E6C4E6FF07EBE6FF08EBE6FFAEEC17F0CB
:102630000401DBDB0CE20750CD5D0501D46F0850CF
:102640000401CE590501D56FD4514DEC17F007EBBD
:10265000CDF408EBCEF479EC17F0CBC4D3F4CCC4B2
:10266000D4F45ADB070EE15D02E1C4EC17F0010E71
:10267000B8D323D989E9025018E0010A35E10550A1
:1026800007E0010A31E105EC18F09BDAD4DB2CD02D
:10269000D950060F32DB04E194DA2FEC9FF042E9C7
:1026A00005EC18F0D1ECA0F013D0055013E0010AAE
:1026B0001BE1D950030F21DB07E103EBE6FF04EB3D
:1026C000E6FF3AEC9FF042E911D97BDAA1ECA0F0E9
:1026D00044E90AD005EC18F074DA09ECA0F046E9F8
:1026E00099ECA0F00009FCE06FD1E7D889E952E845
:1026F00005500AE0010A3DE1F9D80BEC18F061DA67
:102700003DECB8F047E935D0D950060FF6DA04E1D0
:1027100058DA2FEC9FF042E9100E196E1A6A005039
:10272000011027E01950005C1A50015804E280EBB8
:1027300019F081EB1AF019EBE6FF1AEBE6FF0BEC50
:1027400018F0D950090FE8D93DECB8F047E919EB7A
:10275000E6FF1AEBE6FFD950090FE2EC17F019EB90
:10276000D4F51AEBD5F532DA1950005E1A50015A39
:10277000D6D753E9E7CFD9FF1200140EEA02F3CF00
:10278000EAFFE902F3CFE9FFF450EA26C10EE92699
:10279000010EEA221200020ED46F8E0ED56F010ECA
:1027A000D66F060EE66EE66AE66A01EBE6FFE66ABB
:1027B000E66A5DECBFF0E552E5CFD9F5E5CFD8F597
:1027C000E7CFD7F50501D451D725F36ED551D821E0
:1027D000F46ED651D921F86EF4CFF7FFF3CFF6FFA0
:1027E0001200E28BE8ECC5F0BDDBF8EC18F0050157
:1027F000D66BD76B060ED427000ED523D623D7234E
:10280000D4C5DDF4D5C5DEF41200CB51CD5D050194
:10281000D46F0401CC51CE590501D56F1200D950A7
:10282000070FBCDBEFCFF6FFEE2AEFCFF7FF000E6E
:10283000EE22EFCFF8FFEE220800F5501A6E1200DC
:1028400005500208D46F000E0654ACDB29ECBFF033
:10285000010EE66E05010528D66F000E0620D76F23
:10286000140ED703F3CFD7F5D603F3CFD6F5F45034
:10287000D727C10ED627010ED723D6C5E6FFD7C569
:10288000E6FF010EE66E05EBD8F506EBD9F5140E62
:10289000D903F3CFD9F5D803F3CFD8F5F450D9271E
:1028A000C10ED827010ED923D8C5E6FFD9C5E6FF4A
:1028B00055DB0101F96BFA6B1200D9CFE6FFE1CFCE
:1028C000D9FF1200EECFE6FFEECFE6FF5FEC91F00E
:1028D00042E9B3EC18F0A9EF17F002EBE9FF03EBC4
:1028E000EAFF1200E926000EEA22120000EBE6FFE2
:1028F00001EBE6FF1200CD51CF5D0501D46F04015D
:10290000CE51D0590501D56F120018DB740E0401A9
:10291000D927350EDA23060EDB23000EDC23120046
:10292000DEECC5F028DB0401A6510501D427040123
:10293000A7510501D5230401A8510501D62304019F
:10294000A9510501D723D4C5D9F4D5C5DAF4D6C524
:10295000DBF4D7C5DCF41200BDEC18F03CEF18F046
:10296000E66ECDEC09F042E91200DEECC5F0FADAD1
:10297000D90EE96E040EEA6EEE500501D3DA800E30
:10298000D7151200BE51BC250501D66F0401BF51F9
:10299000BD210501D76FD6510401B4250501D46FBF
:1029A000D7510401B521050102D3E8ECC5F0FCC301
:1029B000D6F5FDC3D7F5FEC3D8F5FFC3D9F5120090
:1029C00000EBE6FFEDEF17F041E9E7CFD9FF12008A
:1029D0002FDB0401B251D35D0501D86F0401B3515F
:1029E000D4590501D96F4EEF18F0EECFE6FFEECFC8
:1029F000E6FFEECFE6FFEECFE6FF74EC91F044E9A0
:102A0000BADAA9EF17F01C0DF3CFE9FFF4CFEAFF14
:102A1000900EE926020EEA2212000506000E065A62
:102A200005EBD4F506EBD5F5D451D511120007EB23
:102A3000E9FF08EBEAFF072A000E0822EF50186EA4
:102A40001200ABDBAFDAC3DACDC4E6FFCEC4E6FFDB
:102A5000120005010F500024D46F10500120D56FD3
:102A60000401C651BA250501D66F0401C751BB2127
:102A70000501D76FD451D65DD551D7591200FD0E3F
:102A8000E3500B5CFE0EE3500C58FF0EE3500D5864
:102A9000E7500E581200D351B25D0501D46F040106
:102AA000D451B35905011200F3CFEEFFD5C5EDFFA8
:102AB000A9EF17F0EECFD4F5EFCFD5F5120002EB6A
:102AC000E6FF03EBE6FF120041E9F350026EF4501B
:102AD000036E05010250045CD46F0350055859DAA7
:102AE00045E9E7CFD9FF120011EBE6FF12EBE6FF55
:102AF000E66AE66A41E9E7340E50E7181200E6C4D8
:102B0000E6FFD1C4E6FFD2C4E6FF1200EA6AD4258C
:102B1000E96EDA50EA221200E66EDACFE6FF120022
:102B2000D76F0150D625D46F0250D72140D24FDA4B
:102B3000D50EE96E040EEA6E1200C651BA250501E3
:102B4000D46F0401C751BB210501D56F1200EA6E95
:102B50000501EE500024D46FED50012045EF18F030
:102B60001C0D01DB900E0501D427020ED523B8EF12
:102B700018F0E6C4E6FFB2C4E6FFB3C4E6FFE66AB7
:102B8000450EE66E130EE66EAEEF17F0CBDA040DCF
:102B9000F350120014EBAAF415EBABF416EBACF403
:102BA00017EBADF41200D451056ED551066ED65117
:102BB000076ED751086E1200BC0EE66E040EE66E6C
:102BC000120006EBE6FF07EBE6FF12000501D66BED
:102BD000D950020FE3D9D451EE26D551EE22D65169
:102BE000EE22120018EBAEF419EBAFF41AEBB0F4CE
:102BF0001BEBB1F4AE2B000EAF23B023B1231200B8
:102C0000D625D46F000ED721D56FD42B000ED52337
:102C1000D4C5F3FFD5C5F4FF12000501D651040158
:102C2000DF5D0501D46FD7510401E0590501D56F6F
:102C3000E83412000401D751D55D0501D66F0401B7
:102C4000D851D6590501D76FD651D45D1200FCC3B7
:102C5000EEFF76DAA9EF17F0D351B25DD451B35934
:102C600012000501D4510401AE270501D55104011C
:102C7000AF23000EB023B123120005EBE6FFEDEF0A
:102C800017F0E8ECC5F0BBEF17F0D4510401AA2708
:102C90000501D5510401AB23000EAC23AD23120076
:102CA000D950090F7BD9EE06000EEE5AEE5AEE5AB5
:102CB0001200D551D75D0501D46F0401D651D85902
:102CC0000501D56FD40512000F500024D86F1050A5
:102CD0000120D96F0401C6510501D85D1200D10E43
:102CE000E96E040EEA6E0501EE501200E6C4E6FF3E
:102CF000D7C4E6FFD8C4E6FF120050D9EE52EF5019
:102D0000800B1200030EF36EF46AF3501200D42B02
:102D1000000ED523D4511200CBC4D1F4CCC4D2F4CC
:102D20001200EECFD6F5EFCFD7F512000501250E34
:102D3000D45F000ED55BB8EF18F0D56F0401CD510C
:102D40000501D45D0401CE510501D5591200EA6A8E
:102D5000D525E96EDA50EA22EFCFD4F5610ED45DC5
:102D60001200D56FD4512B5ED5512C5A29502B5CB3
:102D70002A502C5812000501D4250401DF6F000EE3
:102D80000501D5210401E06F1200E2EC01F041E9F8
:102D9000120004EBBCF405EBBDF406EBBEF407EB4C
:102DA000BFF41200EECFD8F5EECFD9F5EECFDAF5BD
:102DB000EFCFDBF51200E9CFD4F5EACFD5F5E9CFB7
:102DC000E6FFEACFE6FF1200EE50D427EE50D523FF
:102DD000EE50D623EE50D723120001EBE6FFEDEFC5
:102DE00017F047E9E7CFD9FF1200D751D55DD85189
:102DF000D6591200D4510008000ED5551200E66EC7
:102E0000E66AD9501200EA6AD725E96EDA50EA225A
:102E1000EF507A081200D4510401B25F0501D55178
:102E20000401B35B120003500124D46F045002204C
:102E3000D56FD451120012ECB8F046E91200000E22
:102E4000F36EF46A1200010EE66EA60EE66E040E34
:102E5000E66E1200F626000EF722F8220900F55061
:102E60001200C96B270EA66FA76BA86BA96B120087
:102E7000C92BD890A637A737A837A9371200180E44
:102E8000296E020E2A6E0401E3851200E66E130E0F
:102E9000E66E2FEC9FF042E912000401D55F0501B8
:102EA000D5510401D65B1200EE500F24D66FED50C1
:102EB0001020D76F120004EBE9FF05EBEAFF1200C8
:102EC000D5C4D7F4D6C4D8F41200CDC4D7F4CEC438
:102ED000D8F41200D3C4B2F4D4C4B3F4120029EB72
:102EE000E6FF2AEBE6FF120027EBE6FF28EBE6FF02
:102EF0001200CBC4B2F4CCC4B3F412000A0EE66ED6
:102F0000E66A120009EBE9FF0AEBEAFFBDEF13F0F6
:102F100005EBE9FF06EBEAFFBDEF13F0DEDC020E86
:102F200072EF14F0D85DD46FEE50D959D56FEE50D2
:102F3000DA59D66FEE50DB59D76F1200DEECC5F0D0
:102F4000FCC3D9F4FDC3DAF4FEC3DBF4FFC3DCF445
:102F5000120000EBE9FF01EBEAFF120039EC13F07D
:102F600048E91200FCC3D8F5FDC3D9F5FEC3DAF574
:102F7000FFC3DBF512003CD9FEC3D6F5FFC3D7F57E
:102F800012001CD9E0EF14F0010EE66E100EB0EF47
:102F900014F0D56FD4C5F3FFF46E1200E96EDACFEA
:102FA000EAFF1200D56FD4C5E6FFE66E1200D56FBA
:102FB000D4510401B619E46F0501D5510401B719C4
:102FC000E56F1200A9DDD1ECA0F044E91200E66A39
:102FD000E668E668E6C4E6FF120015EC00F041E999
:102FE0001200D9501B0FD46FDACFD5F517508EDDF4
:102FF000EF50185C1200D9501D0FD46FDACFD5F501
:10300000195084DDEF501A5C120070DC03EBE6FF10
:1030100004EBE6FF120053DD04EBE6FF1200020EA4
:1030200061DC0501D851EE24D66FD951EE20120093
:10303000CB51CD5D0501D66F0401CC51CE590501B0
:10304000D76F12004ADC0E0E4DDCEECFB8F4EDCF98
:10305000B9F41200100E72EF14F09351D4DC1B0E71
:1030600041DCEFCFE6FF120096EB07F097EB08F09C
:1030700098EB09F00FEF14F0D451EE5ED551EE5AF3
:10308000D651EE5AD751EE5A1200D56FD4510401E1
:10309000CF5D0501D5510401D0591200D851D65D3C
:1030A000D46FD951D759120005EC14F0D890D5330C
:1030B000D4331200010EE66E5FEF15F01CDC87EFD3
:1030C00016F0D950070F8CEF15F005EC14F0D66B05
:1030D000D76B12002A6EB8512B6EB9512C6E2CEFA3
:1030E00016F06DEC14F00C0E72EC14F0C6EF15F047
:1030F0008ADCE0DC96EF16F0010EE66E110E30DC95
:10310000040112005BD844E8E0EF14F095EB07F0FF
:1031100096EB08F017EF15F0FFDC8BEC91F044E92B
:10312000F31C1200EF50F00BE842E842E842E8429C
:1031300012006DEC14F00D0E72EC14F0EF50120052
:10314000D5C5EEFFD6C5EEFFD7C5EEFF120034DDC4
:103150001BEF17F0F0EC01F041E9F350120015DE1F
:103160000401E3811200F3CFD4F5F4CFD5F51200BA
:10317000D4C5E6FFD5C5E6FF1200AA0EE96E040E1F
:10318000EA6E1200E8EC03F041E91200EECFD4F54C
:10319000EECFD5F5C6DD82EF17F0E0DE0501095070
:1031A000005CD46F0A5001581200B8DE5AEF15F0D7
:1031B00032DFA5DC75EC13F048E912005DEC14F089
:1031C00082E9120077DF9BDCAEEF17F0A1DE42DF71
:1031D000EE50ED101200FBDED5C4E6FFD6C4E6FFCC
:1031E000120090DE2AEF18F072EC14F062EF14F087
:0A31F000FCC3D4F5FDC3D5F51200B1
:0631FA004D434850424F16
:10320000415244320023232320444556494345205C
:103210005354415254555020232323200D0A5374F4
:1032200061636B20697320696E697420616E64202C
:10323000726561647920746F20676F2C206D6169FD
:103240006E206C6F6F70207374617274696E670D9D
:103250000A000D0A0A0A2D2D2D2D2D2D2D2D2D2D77
:103260002D2D3D3D3D3D3D3D3D3D3D3D3D3D3D3DAE
:10327000232323232323232323232323232323231E
:10328000242424232323232323232323232323230B
:10329000232323233D3D3D3D3D3D3D3D3D3D3D3DC6
:1032A0003D2D2D2D2D2D2D2D2D2D2D0D0A00544371
:1032B00050537461636B2076342E353120202020EA
:1032C0002020202020202020202020202020000D31
:1032D0000A0D0A4D5046530201000D0A0D0A003630
:1032E0003030006D61782D6167653D006E6F2D6334
:1032F000616368650043616368652D436F6E747236
:103300006F6C3A2000436F6E74656E742D456E636A
:103310006F64696E673A20677A69700D0A00436FBF
:103320006E74656E742D547970653A20000D0A0D27
:103330000A3330342052656469726563743A200040
:10334000696E6465782E68746D006D706673757053
:103350006C6F616400504F53540047455400436FF5
:103360006E74656E742D4C656E6774683A004175B5
:1033700074686F72697A6174696F6E3A00436F6F37
:103380006B69653A00485454502F312E3120343047
:103390003320466F7262696464656E0D0A436F6E16
:1033A0006E656374696F6E3A20636C6F73650D0AA6
:1033B0000D0A34303320466F7262696464656E3A78
:1033C0002053534C205265717569726564202D201D
:1033D0007573652048545450530D0A004854545096
:1033E0002F312E312033303220466F756E640D0A36
:1033F000436F6E6E656374696F6E3A20636C6F73B2
:10340000650D0A4C6F636174696F6E3A2000485411
:1034100054502F312E312035303020496E74657272
:103420006E616C20536572766572204572726F72A0
:103430000D0A436F6E6E656374696F6E3A20636C3C
:103440006F73650D0A436F6E74656E742D547970D9
:10345000653A20746578742F68746D6C0D0A0D0AD6
:103460003C68746D6C3E3C626F6479207374796C57
:10347000653D226D617267696E3A31303070782235
:103480003E3C623E4D50465320496D616765204386
:103490006F7272757074206F722057726F6E672032
:1034A00056657273696F6E3C2F623E3C703E3C61A4
:1034B00020687265663D222F6D70667375706C6F43
:1034C0006164223E54727920616761696E3F3C2FCE
:1034D000613E3C2F626F64793E3C2F68746D6C3E98
:1034E00000485454502F312E3120323030204F4B71
:1034F0000D0A436F6E6E656374696F6E3A20636C7C
:103500006F73650D0A436F6E74656E742D54797018
:10351000653A20746578742F68746D6C0D0A0D0A15
:103520003C68746D6C3E3C626F6479207374796C96
:10353000653D226D617267696E3A31303070782274
:103540003E3C623E4D504653205570646174652088
:103550005375636365737366756C3C2F623E3C7094
:103560003E3C6120687265663D222F223E5369749D
:1035700065206D61696E20706167653C2F613E3C1E
:103580002F626F64793E3C2F68746D6C3E00485426
:1035900054502F312E3120323030204F4B0D0A4302
:1035A0006F6E6E656374696F6E3A20636C6F7365DE
:1035B0000D0A436F6E74656E742D547970653A20F0
:1035C000746578742F68746D6C0D0A0D0A3C68740C
:1035D0006D6C3E3C626F6479207374796C653D223A
:1035E0006D617267696E3A3130307078223E3C66A8
:1035F0006F726D206D6574686F643D706F737420B9
:10360000616374696F6E3D222F6D70667375706CA7
:103610006F61642220656E63747970653D226D75FB
:103620006C7469706172742F666F726D2D64617451
:1036300061223E3C623E4D50465320496D616765B4
:103640002055706C6F61643C2F623E3C703E3C695B
:103650006E70757420747970653D66696C65206E56
:10366000616D653D692073697A653D34303E202681
:103670006E6273703B203C696E7075742074797053
:10368000653D7375626D69742076616C75653D2268
:1036900055706C6F6164223E3C2F666F726D3E3CCC
:1036A0002F626F64793E3C2F68746D6C3E00485405
:1036B00054502F312E3120353031204E6F74204937
:1036C0006D706C656D656E7465640D0A436F6E6E2A
:1036D000656374696F6E3A20636C6F73650D0A0DD4
:1036E0000A353031204E6F7420496D706C656D6500
:1036F0006E7465643A204F6E6C79204745542061A2
:103700006E6420504F535420737570706F727465DF
:10371000640D0A00485454502F312E31203530307A
:1037200020496E7465726E616C20536572766572A5
:10373000204572726F720D0A436F6E6E6563746915
:103740006F6E3A20636C6F73650D0A0D0A35303069
:1037500020496E7465726E616C2053657276657275
:10376000204572726F723A204578706563746564A3
:103770002064617461206E6F742070726573656E71
:10378000740D0A00485454502F312E3120343134F6
:1037900020526571756573742D55524920546F6FB1
:1037A000204C6F6E670D0A436F6E6E656374696FB0
:1037B0006E3A20636C6F73650D0A0D0A3431342044
:1037C000526571756573742D55524920546F6F2081
:1037D0004C6F6E673A20427566666572206F76653B
:1037E00072666C6F772064657465637465640D0A36
:1037F00000485454502F312E3120343034204E6F35
:103800007420666F756E640D0A436F6E6E65637427
:10381000696F6E3A20636C6F73650D0A436F6E7447
:10382000656E742D547970653A20746578742F68CC
:10383000746D6C0D0A0D0A3430343A2046696C659B
:10384000206E6F7420666F756E643C62723E5573B5
:1038500065203C6120687265663D222F6D7066733D
:1038600075706C6F6164223E4D5046532055706CEC
:103870006F61643C2F613E20746F2070726F6772BD
:10388000616D207765622070616765730D0A00487D
:103890005454502F312E312034303120556E617503
:1038A00074686F72697A65640D0A5757572D4175B0
:1038B0007468656E7469636174653A204261736906
:1038C00063207265616C6D3D2250726F7465637424
:1038D0006564220D0A436F6E6E656374696F6E3A9C
:1038E00020636C6F73650D0A0D0A34303120556EFC
:1038F000617574686F72697A65643A205061737398
:10390000776F72642072657175697265640D0A0063
:10391000485454502F312E3120323030204F4B0D2F
:103920000A436F6E6E656374696F6E3A20636C6FE5
:1039300073650D0A0000617564696F2F782D7761DA
:103940007665006170706C69636174696F6E2F6A6F
:103950006176612D766D00696D6167652F6A7065AE
:103960006700696D6167652F706E6700696D6167DB
:10397000652F67696600746578742F6373730074CC
:103980006578742F786D6C00746578742F68746D29
:103990006C00746578742F706C61696E00000000B3
:1039A0000077617600636C61006A706700706E6713
:1039B000006769660063737300786D6C0063676904
:1039C0000068746D6C0068746D0074787400214434
:1039D000454600666F6F7465722E696E6300686598
:1039E000616465722E696E63004D5046530201009A
:1039F000515549540D0A000D0A2E000D0A2E0D0ACC
:103A0000000D0A5375626A6563743A20000D0A431B
:103A1000433A20000D0A546F3A200046726F6D3A07
:103A20002000444154410D0A005243505420544F49
:103A30003A3C003E0D0A004D41494C2046524F4D44
:103A40003A3C000D0A0041555448204C4F47494E1E
:103A50000D0A0045484C4F204D434850424F4152BB
:103A6000440D0A0048454C4F204D434850424F41B9
:103A700052440D0A002054686556616C7565203DFE
:103A800020005468654B6579203D2000206E6F2032
:103A90006D6174636820617320697420776173209D
:103AA000746F2073686F727400206E6F206D617484
:103AB0006368206F6E20636861723A0020436F6D07
:103AC00070616972656420746F3A00202D2078500F
:103AD0004C50726F636573734D7367436F6D7061A4
:103AE00069722C204E6F204D617463682E206943EB
:103AF0006F756E743A00202D2078504C50726F63B1
:103B00006573735F4D73674669656C642C4E6F20F7
:103B10006D6174636820666F756E64207769746880
:103B200020737472696E673A002057697468205276
:103B30006573756C743A00202D2078504C50726F6C
:103B4000636573735F4D73674669656C642C2069A8
:103B50006E74206D617463683A200020656E646540
:103B600064206279206D61782073697A650D0A009E
:103B700020456E646564206279204E6577204C692B
:103B80006E650D0A0020436F72726563746C792054
:103B9000656E646564206279207465726D20636867
:103BA00061723A0078504C50726F63657373536161
:103BB000766556616C75653A2000204D65737361BA
:103BC00067652061636365707465642E0D0A00206B
:103BD000657870656374656420656E64206F662027
:103BE0006865616465722E204D6573736167652039
:103BF00072656A65637465642E0D0A00204F7065F6
:103C00006E2074686520626F6479206F6620746826
:103C100065206D657373616765207B204E65774C09
:103C2000696E65200D0A00206572726F72206973DB
:103C300020736368656D6120747970652E204D6511
:103C400073736167652072656A65637465642E0DC0
:103C50000A0020426567696E206465636F64696E5F
:103C6000672074686520536368656D6120547970BE
:103C700065200D0A00206572726F722069732073CF
:103C80006368656D6120636C6173732E204D65738D
:103C9000736167652072656A65637465642E0D0AD9
:103CA0000020426567696E206465636F64696E67B2
:103CB0002074686520536368656D6120436C61738F
:103CC00073200D0A00200D0A0020486561646572AA
:103CD00020747970653A20000D0A20234552524F16
:103CE0005223204572726F7220696E2048656164AC
:103CF0006572547970652073656374696F6E206FA7
:103D0000662058504C50726F636573735544504D24
:103D100073674865616465720D0A00204D657373B1
:103D200061676520746F204F74686572200D0A000A
:103D3000204D65737361676520746F204F746865EB
:103D4000722000204D657373616765206469726538
:103D50006374656420746F206D6520002045727265
:103D60006F7220696E205461726765742C204465FF
:103D7000766963652E204D65737361676520726592
:103D80006A6563746564200D0A00204572726F7263
:103D900020696E205461726765742056656E646F89
:103DA000722E204D6573736167652072656A656365
:103DB000746564200D0A00204572726F7220696E6E
:103DC000205461726765742E204D65737361676559
:103DD0002072656A6563746564200D0A0020427272
:103DE0006F6164636173746564206D65737361678B
:103DF000652C2076616C75653A20002A00204265AA
:103E000067696E206465636F64696E6720746865B6
:103E100020546172676574200D0A0020496E737426
:103E2000616E63653A00204465766963653A0020F7
:103E30004D65737361676520536F75726365202DDF
:103E40002056656E646F723A00204572726F722060
:103E5000696E20536F757263652C20496E737461AF
:103E60006E63652E204D6573736167652072656AA8
:103E70006563746564200D0A00204572726F7220BC
:103E8000696E20536F757263652C20446576696393
:103E9000652E204D6573736167652072656A656381
:103EA000746564200D0A00204572726F7220696E7D
:103EB00020536F757263652C2056656E646F722E89
:103EC000204D6573736167652072656A656374650B
:103ED00064200D0A0020426567696E206465636F87
:103EE00064696E672074686520536F75726365201E
:103EF0000D0A0020556E6B6E6F776E2068656164E9
:103F00006572206665696C642E204D657373616708
:103F1000652072656A6563746564200D0A00204D32
:103F2000697373696E67206E6577206C696E6520B2
:103F30006368617261637465722E204D657373618D
:103F400067652072656A6563746564200D0A0048C0
:103F50006561646572206D6573736167652074794E
:103F600070652069732000204572726F7220696E3F
:103F70002068656164657220747970652E204D65D6
:103F800073736167652072656A6563746564200D8B
:103F90000A00736B69707320736368656D612C2010
:103FA00070726F63657373696E672073746F70707E
:103FB00065640D0A004D65737361676520676F69FD
:103FC0006E6720746F20536368656D6120746F2085
:103FD00070726F63657373200D0A00207365636FE1
:103FE0006E6473200D0A0020484265617420736579
:103FF0006E7420696E2000636F6D6D616E640048A1
:104000006561727420626561742072657175657393
:10401000742C000D0A002044657374696E61746924
:104020006F6E3A200020536368656D61205479708B
:10403000653A200020536368656D6120436C6173AD
:10404000733A2000204D6573736167652074797041
:10405000653A20000A7B0A000A7461726765743D44
:10406000000A7B0A686F703D310A736F7572636571
:104070003D000A7D0A00696E74657276616C3D00D0
:10408000234552524F52232058504C53656E64487A
:1040900065617274426561742C206E6F204D4143DE
:1040A000207472616E736D697420706F72740D0A82
:1040B000000D0A2323232323232323232323232322
:1040C0002323232323232323230D0A55445020781D
:1040D000504C20736F636B657420636F6E746169FD
:1040E0006E7320646174610D0A00656E640D0A00D0
:1040F000536176696E67207374617274696E6700CC
:1041000054686520636F6E666967207665727369AF
:104110006F6E20646964206E6F74207265747572AE
:104120006E20636F72726563746C792E204C6F61C0
:1041300064206661696C65640D0A00416C6C2069DD
:104140006E69742070726F63657373657320636F3B
:104150006D706C657465642C20726561647920747F
:104160006F20676F200D0A0078504C496E697420EB
:10417000646574656374656420746865206465763D
:1041800069636520697320636F6E66696775726520
:10419000640D0A0078504C496E697420646574653A
:1041A0006374656420646576696365206E6F74204E
:1041B000636F6E666967757265640D0A0078504CAE
:1041C000496E69742063616C6C65640D0A007A6FD6
:1041D0006E656C69737400617265616C69737400FB
:1041E00067617465696E666F007A6F6E65696E6689
:1041F0006F0061726561696E666F006761746573F7
:10420000746174007A6F6E657374617400617265B5
:1042100061737461740067617465776179007A6FA6
:104220006E6500617265610063757272656E74001F
:104230007265717565737400726573706F6E736506
:1042400000656E64006C6973740062617369630079
:10425000736563757269747900636F6E6669670070
:104260006862656174007D007461726765740073D3
:104270006F7572636500686F700078706C2D747272
:1042800069670078706C2D737461740078706C2DA0
:10429000636D6E64000A69736F6C617465643D667A
:1042A000616C73650A7D0A000A62797061737365D7
:1042B000643D66616C73650A7D0A00234552524F66
:1042C000522320456E61626C65417265612C206EDF
:1042D0006F204D4143207472616E736D697420705C
:1042E0006F72740D0A00456E61626C6520417265E3
:1042F000610D0A000A73746174653D66616C7365D3
:104300000A7D0A00234552524F522320456E6162B6
:104310006C655A6F6E652C206E6F204D4143207482
:1043200072616E736D697420706F72740D0A00454E
:104330006E61626C696E67205A6F6E650D0A000AC5
:1043400062797061737365643D747275650A7D0A84
:104350000042797061737320417265610D0A0065D6
:1043600076656E743D62797061737365640A7A6F05
:104370006E653D00234552524F5223206279706191
:1043800073735A6F6E652C206E6F204D41432074FD
:1043900072616E736D697420706F72740D0A0042E1
:1043A0007970617373205A6F6E650D0A000A697324
:1043B0006F6C617465643D747275650061726561EE
:1043C0003D00234552524F52232049736F6C617454
:1043D00065417265612C206E6F204D4143207472DF
:1043E000616E736D697420706F72740D0A00497389
:1043F0006F6C61746520417265610D0A000A737407
:104400006174653D747275650A7D0A006576656E36
:10441000743D69736F6C617465640A7A6F6E653D93
:1044200000234552524F52232049736F6C617465CB
:104430005A6F6E652C206E6F204D4143207472615F
:104440006E736D697420706F72740D0A0049736F1A
:104450006C6174696E67207A6F6E650D0A00537423
:10446000617465206368616E676520746F2064699C
:104470007361726D0D0A000D0A0D0A205265737486
:104480006172742023232323232323232323232321
:104490002323005375626E6574206572726F7265B6
:1044A000640D0A005375626E65743A007375626E2E
:1044B0006574006970206572726F7265640D0A0020
:1044C00069703A00697000696E74657276616C207B
:1044D0003D00696E74657276616C006E6577636F1E
:1044E0006E66203D006E6577636F6E66004D757376
:1044F000742062652064697361726D656420746FF5
:104500002075706461746520636F6E66696700234F
:104510004552524F522320536869742062726F6B68
:10452000656E207769746820547970655F52657193
:1045300075657374207768656E206D73672072638C
:1045400027640D0A00234552524F522320536869B5
:10455000742C20736F6D657468696E672062726F6A
:104560006B65207769746820547970655F42617368
:104570006963207768656E20746865206D65737364
:10458000616765207761732072656365697665642C
:104590000D0A00234E6F7465232072657175657373
:1045A000742074797065206E6F74206B6E6F776EF7
:1045B0000D0A007265717565737400234E6F746522
:1045C0002320636F6D6D616E642074797065206E59
:1045D0006F74206B6E6F776E0D0A00636F6D6D6187
:1045E0006E640064656C6179007A6F6E652D6C692C
:1045F000737400617265612D6C6973740075736505
:104600007200616C6C000A7D0A000A6572726F723A
:104610003D41726D206661696C206173207A6F6E16
:10462000652074726970706564006576656E743DAE
:104630006572726F720A7A6F6E652D6C6973743D64
:1046400000234552524F52232041726D4661696CDE
:1046500065642C206E6F204D4143207472616E732F
:104660006D697420706F72740D0A00537461746503
:10467000206368616E676520746F2061726D2066CB
:1046800061696C65640D0A0041726D206661696C38
:1046900065642061732061207A6F6E6520697320E4
:1046A000696E636F72726563740D0A00537461748E
:1046B00065206368616E676520746F2061726D208C
:1046C00063616C6C65640D0A0050414E49430D0AEC
:1046D0000041726D4C617463686B65790D0A00412D
:1046E000726D417761790D0A0041726D486F6D6599
:1046F0000D0A004E6F7468696E672073656C6563A0
:1047000074656420746F2061726D0041726D0D0AD2
:1047100000416C61726D696E6720636F756E742005
:10472000646F776E3A20005374617465206368612A
:104730006E67656420746F20416C61726D65642CD6
:1047400020736972656E20616E64207374726F628B
:1047500065206F66660D0A00537461746520636896
:10476000616E676520746F20616C61726D696E6740
:104770000D0A0054696D657374616D70206F7574F6
:10478000206F662072616E67652E20436865636BDB
:104790002073797374656D2074696D650075736538
:1047A0007220696E76616C6964005265737461721F
:1047B00074696E67206465766963652E2E2E2E2ED1
:1047C0002E2E2E2E2E2E2E2E0D0A00416C6C2063C6
:1047D0006F6E66696720646174612068617320622E
:1047E00065656E2064656C657465642E200D0A0035
:1047F000436C656172696E6720636F6E66696720DE
:10480000646174610D0A00696E74657276616C3D55
:10481000300A7D0A00232323232320466163746F1B
:104820007279207265737461727420696E2070727F
:104830006F67726573732023232323230D0A00708F
:104840006F6F6C2E6E74702E6F7267005365637598
:104850007269747920536368656D6120696E69744B
:10486000616C697365642C20476174657761792098
:104870006D6573736167652073656E742E0D0A0034
:1048800044657669636520646573632073697A653E
:104890003A2000557365722073697A653A20005397
:1048A0006563757269747920536368656D61204131
:1048B000726561436F6E6669672073697A653A2035
:1048C00000536563757269747920536368656D611F
:1048D000205A6F6E65436F6E6669672073697A65EB
:1048E0003A20005365637572697479205363686573
:1048F0006D612078504C436F6E6669672073697AEA
:10490000653A20000D0A0020454553697A653A2032
:10491000002045455374617274733A004950204138
:104920007070436F6E666967202073697A653A20FC
:10493000002023204E4F5445232041726561436F70
:104940006E666967204C6F616465642064656661AA
:10495000756C74205365637572697479205365743E
:1049600074696E67730D0A002023204E4F5445234F
:104970002078504C436F6E666967204C6F616465A8
:10498000642064656661756C742053656375726933
:1049900074792053657474696E67730D0A0020235F
:1049A000204E4F544523205A6F6E65436F6E6669E3
:1049B00067204C6F616465642064656661756C7422
:1049C0002053656375726974792053657474696ED8
:1049D00067730D0A006172656173746174007A6FA8
:1049E0006E657374617400676174657374617400DB
:1049F00061726561696E666F007A6F6E65696E6679
:104A00006F00617265616C697374007A6F6E656CBA
:104A10006973740067617465696E666F00656E61C5
:104A2000626C65006279706173730069736F6C61A9
:104A300074650070616E69630064697361726D0012
:104A400061726D2D6C617463686B65790061726D64
:104A50002D617761790061726D2D686F6D65006100
:104A6000726D003234686F757200696E74657269B8
:104A70006F7200706572696D6574657200006F74A5
:104A8000686572006475726573730073696C656E36
:104A9000740067617300666C6F6F640066697265AD
:104AA000006275676C617279002072656A65637473
:104AB00065640D0A002041636365707465640D0AC6
:104AC000005765622055736572206E616D652061C7
:104AD000636365707465642C6C6F6F6B696E6720BF
:104AE000666F722070617373776F726400576562CE
:104AF0002041646D696E2070617373776F726420FA
:104B000072656A65637465640D0A005765622041C9
:104B1000646D696E2075736572206163637065747E
:104B200065640D0A00576562204F7665727269648C
:104B3000652070617373776F726420757365640D9F
:104B40000A002050616765206E65656473206765A3
:104B50006E6572616C206163636573730D0A00207A
:104B600050616765206E656564732061646D696E70
:104B7000206163636573730D0A0061646D696E0083
:104B80005765622070616765206265696E67206C99
:104B90006F616465643A002F61646D696E2F75738F
:104BA0006572732E68746D004E657755736572502B
:104BB000617373776F72643A00203A200020737437
:104BC000726C656E3A004E6577557365724E616D15
:104BD000653A0050004E00557365722049440069E3
:104BE0006400536176696E672075736572206E612B
:104BF0006D650D0A00536176696E67207573657285
:104C00002070617373776F72640D0A0023455252EE
:104C10004F52232055736572206F7574206F662084
:104C200072616E67652C536176655573657250616C
:104C30007373776F7264454564617461200D0A0077
:104C4000234552524F52232055736572206F75745D
:104C5000206F662072616E67652C4C6F61645573BE
:104C600065724E616D65454564617461200D0A0091
:104C7000234552524F52232055736572206F75742D
:104C8000206F662072616E67652C4C6F616455738E
:104C9000657250617373776F7264454564617461C6
:104CA000200D0A000D0A00557365722049443A0030
:104CB00020686173204641494C4544206175746801
:104CC000656E7469636174696F6E0D0A00206861B6
:104CD00073207061737365642061757468656E74A8
:104CE00069636174696F6E0D0A0020557365723ACD
:104CF00000426F6F004F7665727269646520706163
:104D00007373776F726420757365640D0A00626F48
:104D10006F0020494E56414C49442C204641494C95
:104D200045442061757468656E7469636174696F68
:104D30006E0D0A002C2070617373696E6720746FAA
:104D40002061757468656E7469636174696F6E2043
:104D50006D6F64756C650D0A00204465637279702F
:104D60007465642070617373776F72642069733A3D
:104D70000054696D65207374616D702069732074CF
:104D80006F2066617220696E207468652066757494
:104D90007572652C206D6573736167652072656A35
:104DA00065637465640D0A0054696D6520737461F0
:104DB0006D7020697320746F206F6C642C206D659A
:104DC00073736167652072656A65637465640D0A53
:104DD00000203C2D446563727970746564206F75A2
:104DE000747075740D0A00203C2D31362062797480
:104DF0006520726573756C742066726F6D206465D2
:104E0000636F64650D0A00203C2D31362062797491
:104E10006520426C6F636B2032206265206465639D
:104E20006F6465640D0A00203C2D31362062797470
:104E3000652064656372797074696F6E206B657943
:104E40002061667465722041455363616C634465FB
:104E5000636F64654B65790D0A00203C2D31362067
:104E6000627974652050617373776F726420666F26
:104E7000722064656372797074696F6E0D0A002028
:104E800000204145532069732064697361626C6539
:104E9000732C206E6F20656E6372797074696F6E0B
:104EA000206F6E2075736572206665696C640D0AEB
:104EB0000078504C206D657373616765207573656C
:104EC000722061757468656E7469636174696F6E70
:104ED0002068617320737461727465642E0D0A001A
:104EE00053656E645A6F6E65537461742073656E9A
:104EF0007400656E61626C656400627970617373E1
:104F000065640069736F6C61746564000A73746131
:104F100074653D00234552524F52232053656E6401
:104F20005A6F6E65537461742C206E6F204D41432F
:104F3000207472616E736D697420706F72740D0AE3
:104F40000053656E644172656153746174207365CA
:104F50006E74000A62797061737365643D000A695A
:104F6000736F6C617465643D000A74616D70657285
:104F70003D002C000A616C61726D2D7A6F6E657355
:104F80003D00747275650A616C61726D2D74797083
:104F9000653D000A616C61726D3D000A616C65726D
:104FA000743D0066616C73650074727565000A611A
:104FB000726D65643D00234552524F522320536564
:104FC0006E6441726561537461742C206E6F204D64
:104FD0004143207472616E736D697420706F7274D6
:104FE0000D0A0053656E64476174655374617420E3
:104FF00073656E7400616C61726D2D747970653DBE
:1050000000616C61726D0A0064697361726D656440
:105010000A0061726D65640A007374617475733D92
:10502000006C6F772D626174746572793D00666102
:105030006C73650A00747275650A0061632D6661A0
:10504000696C3D00234552524F52232053656E64D4
:1050500047617465537461742C206E6F204D414319
:10506000207472616E736D697420706F72740D0AB2
:105070000053656E644143537461742073656E74AC
:10508000006576656E743D61632D726573746F7231
:1050900065640A7D0A006576656E743D61632D6600
:1050A00061696C0A7D0A00234552524F52232053F6
:1050B000656E644143537461742C206E6F204D41C2
:1050C00043207472616E736D697420706F72740D19
:1050D0000A0053656E644261747465727953746139
:1050E000742073656E740D0A006576656E743D629A
:1050F0006174746572792D6F6B0A7D0A006576653F
:105100006E743D6C6F772D626174746572790A7D7F
:105110000A00234552524F52232053656E64426168
:105120007474657279537461742C206E6F204D41D4
:1051300043207472616E736D697420706F72740DA8
:105140000A0053656E6447617465776179436861ED
:105150006E6765642073656E74006576656E743D78
:105160006368616E6765640A7D0A00234552524F89
:1051700052232053656E6447617465776179436893
:10518000616E6765642C206E6F204D414320747200
:10519000616E736D697420706F72740D0A002E0059
:1051A00053656E64436F6E66696743757272656EB0
:1051B000742073656E74007375626E65743D00696A
:1051C000703D00696E74657276616C3D006E657746
:1051D000636F6E663D00234552524F522320536544
:1051E0006E64436F6E66696743757272656E742C88
:1051F000206E6F204D4143207472616E736D69742F
:1052000020706F72740D0A0053656E64436F6E6692
:1052100069674C6973742073656E74006F7074698C
:105220006F6E3D7375626E65740A006F7074696F9E
:105230006E3D69700A006F7074696F6E3D696E74BF
:10524000657276616C0A007265636F6E663D6E65AD
:1052500077636F6E660A00234552524F52232053E4
:10526000656E64436F6E6669674C6973742C206E5B
:105270006F204D4143207472616E736D69742070AC
:105280006F72740D0A000A7A6F6E652D636F756E0A
:10529000743D00617265613D00234552524F5223B7
:1052A0002053656E6441726561496E666F2C206E95
:1052B0006F204D4143207472616E736D697420706C
:1052C0006F72740D0A000A726F6F6D3D000A617291
:1052D00065612D636F756E743D000A7A6F6E652D82
:1052E000747970653D007A6F6E653D0023455252BA
:1052F0004F52232053656E645A6F6E65496E666F18
:105300002C206E6F204D4143207472616E736D6965
:105310007420706F72740D0A00234552524F52234D
:105320002053656E64417265614C6973742C206E04
:105330006F204D4143207472616E736D69742070EB
:105340006F72740D0A00234552524F522320536549
:105350006E645A6F6E654C6973742C206E6F204DAD
:105360004143207472616E736D697420706F727442
:105370000D0A0053656E6444697361726D204D655A
:1053800073736167652053656E740D0A00657665F9
:105390006E743D64697361726D65640A75736572DC
:1053A0003D00234552524F52232053656E64446999
:1053B0007361726D2C206E6F204D414320747261B9
:1053C0006E736D697420706F72740D0A006572726D
:1053D0006F723D006576656E743D6572726F720026
:1053E000234552524F52232053656E644572726FAB
:1053F000722C206E6F204D4143207472616E736D6C
:10540000697420706F72740D0A0053656E64417286
:105410006D6564204D6573736167652053656E74B7
:105420000D0A00757365723D00617265612D6C69CE
:1054300073743D000A007A6F6E652D6C6973743D5C
:10544000006576656E743D61726D65640A00234582
:1054500052524F52232053656E6441726D65642C25
:10546000206E6F204D4143207472616E736D6974BC
:1054700020706F72740D0A0053656E644761746525
:105480007761795265616479204D657373616765F1
:105490002053656E740D0A006576656E743D726505
:1054A0006164790A7D0A0053656E644761746577AB
:1054B0006179496E666F204D65737361676520532E
:1054C000656E740D0A007D0A00617265612D636F5F
:1054D0006D6D616E64733D61726D2C69736F6C618B
:1054E00074652C6279706173732C656E61626C6592
:1054F0000A007A6F6E652D636F6D6D616E64733D2A
:1055000061726D7C69736F6C6174657C62797061C6
:1055100073737C656E61626C650A006761746577A0
:1055200061792D636F6D6D616E64733D61726D7C29
:1055300061726D2D686F6D657C61726D2D61776133
:10554000797C61726D2D6C617463686B65797C64C4
:10555000697361726D7C70616E69637C69736F6C75
:105560006174657C6279706173737C656E61626C75
:10557000650A00617265612D636F756E743D007A16
:105580006F6E652D636F756E743D00696E666F2D6D
:1055900075726C3D7777772E6E6576656E2E696EC7
:1055A000666F0A00617574686F723D4A6172726F4E
:1055B00064204E6576656E0A0076657273696F6E5B
:1055C0003D416C7068612072656C656173650A00AD
:1055D0006465736372697074696F6E3D416C61726A
:1055E0006D2073797374656D2064657369676E658A
:1055F0006420666F7220486F6D65204175746F6D11
:105600006174696F6E0A0070726F746F636F6C3DC6
:1056100078504C0A00234552524F52232053656E56
:105620006447617465776179496E666F2C206E6F8F
:10563000204D4143207472616E736D697420706FE8
:1056400072740D0A00546578743A20005A6F6E65C2
:10565000416C61726D547970653A20002050616E22
:10566000696320416C61726D005A6F6E653A20006B
:1056700053656E64416C61726D696E674D7367202E
:105680004D6573736167652053656E740D0A000A7A
:10569000616C61726D2D747970653D000A6172658F
:1056A000612D6C6973743D000A7A6F6E652D6C69AB
:1056B00073743D006576656E743D616C61726D005A
:1056C000234552524F52232053656E64416C6172E0
:1056D0006D696E674D73672C206E6F204D414320BE
:1056E0007472616E736D697420706F72740D0A004C
:1056F0006576656E743D6E6F726D616C0A61726580
:10570000613D006576656E743D74616D7065720A09
:10571000617265613D006576656E743D616C6572B0
:10572000740A617265613D00234552524F52232035
:1057300053656E644172656153746174654D73673E
:105740002C206E6F204D4143207472616E736D6921
:105750007420706F72740D0A006576656E743D6E0C
:105760006F726D616C0A7A6F6E653D006576656E6D
:10577000743D74616D7065720A7A6F6E653D000AE2
:105780007D0A006576656E743D616C6572740A7A97
:105790006F6E653D00234552524F52232053656E74
:1057A000645A6F6E6553746174654D73672C206E17
:1057B0006F204D4143207472616E736D6974207067
:1057C0006F72740D0A000D0A0078504C206D6573DD
:1057D0007361676520706C6163656420696E207118
:1057E00075657565200D0A20202D207461736B206E
:1057F000706F736974696F6E002F61646D696E2FCD
:10580000636F6E6669675F6572726F722E68746D22
:10581000002F61646D696E2F7265626F6F742E6800
:10582000746D3F00686F737400006D616300006405
:105830006E73320000646E733100007375626E65C2
:10584000740000677700006970000061646D696E24
:105850002F6970636F6E6669672E68746D004854B7
:10586000545020504F5354207265636569766564C7
:105870002066726F6D2066696C653A000D0A002023
:105880003D20002F656D61696C2F746573742E68FF
:10589000746D00656D61696C2F696E6465782E6842
:1058A000746D0061646D696E2F75736572732E6817
:1058B000746D0044697361726D2074686520616C59
:1058C00061726D206265666F7265207570646174C7
:1058D000696E672074686520636F6E6669670D0A7C
:1058E000002F61646D696E2F616C61726D636F6E04
:1058F0006669672E68746D00557365414553004EA7
:10590000545020536572766572200D0A004E545033
:1059100000536972656E2044656C6179005344657B
:1059200000536972656E2044656C61792032346879
:105930000053443200416C61726D696E67203234ED
:10594000686F7572204475726174696F6E004144AE
:105950003200416C61726D696E67204475726174CA
:10596000696F6E0041447500456E7472792044651C
:105970006C617900456E4400457869742044656C1B
:105980006179004578440048656172742042656120
:105990007420696E74657276616C00496E7400697A
:1059A0006E7374616E6365200D0A00496E73004169
:1059B0006C61726D206973206265696E6720757015
:1059C00064617465640D0A002F61646D696E2F4E09
:1059D0005450746573742E68746D00202D206675A4
:1059E000636B2061206475636B0D0A00202D2054C9
:1059F0004553542074696D656F75742066726F6DC0
:105A00002073746172740D0A00202D205445535484
:105A100020534D5F484F4D650D0A00202D20544501
:105A2000535420646F6E652073746174650D0A00B1
:105A3000546573744E54500061646D696E2F616CCF
:105A400061726D636F6E6669672E6874002F636F95
:105A50006E74726F6C2E68746D0050616E69630DA8
:105A60000A0041726D204C61746368206B65790D8A
:105A70000A0041726D20417761790D0A0041726D13
:105A800020486F6D650D0A0044697361726D204195
:105A90006C61726D2073797374656D0D0A00636FAC
:105AA0006E74726F6C00457869742064656C6179FE
:105AB00000457869742064656C61792C20646566A2
:105AC00061756C740D0A0064656C617900636F6EBA
:105AD00074726F6C2E68746D002F61646D696E2F27
